{
  "_format": "hh-sol-artifact-1",
  "contractName": "IntentSettlement",
  "sourceName": "src/IntentSettlement.sol",
  "abi": [
    {
      "inputs": [],
      "stateMutability": "nonpayable",
      "type": "constructor"
    },
    {
      "inputs": [
        {
          "internalType": "address",
          "name": "target",
          "type": "address"
        }
      ],
      "name": "AddressEmptyCode",
      "type": "error"
    },
    {
      "inputs": [
        {
          "internalType": "address",
          "name": "implementation",
          "type": "address"
        }
      ],
      "name": "ERC1967InvalidImplementation",
      "type": "error"
    },
    {
      "inputs": [],
      "name": "ERC1967NonPayable",
      "type": "error"
    },
    {
      "inputs": [],
      "name": "FailedCall",
      "type": "error"
    },
    {
      "inputs": [],
      "name": "InvalidInitialization",
      "type": "error"
    },
    {
      "inputs": [],
      "name": "NotInitializing",
      "type": "error"
    },
    {
      "inputs": [
        {
          "internalType": "address",
          "name": "owner",
          "type": "address"
        }
      ],
      "name": "OwnableInvalidOwner",
      "type": "error"
    },
    {
      "inputs": [
        {
          "internalType": "address",
          "name": "account",
          "type": "address"
        }
      ],
      "name": "OwnableUnauthorizedAccount",
      "type": "error"
    },
    {
      "inputs": [
        {
          "internalType": "address",
          "name": "token",
          "type": "address"
        }
      ],
      "name": "SafeERC20FailedOperation",
      "type": "error"
    },
    {
      "inputs": [],
      "name": "UUPSUnauthorizedCallContext",
      "type": "error"
    },
    {
      "inputs": [
        {
          "internalType": "bytes32",
          "name": "slot",
          "type": "bytes32"
        }
      ],
      "name": "UUPSUnsupportedProxiableUUID",
      "type": "error"
    },
    {
      "anonymous": false,
      "inputs": [],
      "name": "EIP712DomainChanged",
      "type": "event"
    },
    {
      "anonymous": false,
      "inputs": [
        {
          "indexed": true,
          "internalType": "bytes32",
          "name": "intentId",
          "type": "bytes32"
        },
        {
          "indexed": true,
          "internalType": "address",
          "name": "solver",
          "type": "address"
        },
        {
          "indexed": false,
          "internalType": "uint256",
          "name": "amount",
          "type": "uint256"
        }
      ],
      "name": "FundsClaimed",
      "type": "event"
    },
    {
      "anonymous": false,
      "inputs": [
        {
          "indexed": true,
          "internalType": "bytes32",
          "name": "intentId",
          "type": "bytes32"
        },
        {
          "indexed": true,
          "internalType": "address",
          "name": "swapper",
          "type": "address"
        },
        {
          "indexed": false,
          "internalType": "address",
          "name": "token",
          "type": "address"
        },
        {
          "indexed": false,
          "internalType": "uint256",
          "name": "amount",
          "type": "uint256"
        }
      ],
      "name": "FundsLocked",
      "type": "event"
    },
    {
      "anonymous": false,
      "inputs": [
        {
          "indexed": true,
          "internalType": "bytes32",
          "name": "intentId",
          "type": "bytes32"
        },
        {
          "indexed": true,
          "internalType": "address",
          "name": "swapper",
          "type": "address"
        },
        {
          "indexed": false,
          "internalType": "uint256",
          "name": "amount",
          "type": "uint256"
        }
      ],
      "name": "FundsRefunded",
      "type": "event"
    },
    {
      "anonymous": false,
      "inputs": [
        {
          "indexed": false,
          "internalType": "uint64",
          "name": "version",
          "type": "uint64"
        }
      ],
      "name": "Initialized",
      "type": "event"
    },
    {
      "anonymous": false,
      "inputs": [
        {
          "indexed": true,
          "internalType": "address",
          "name": "previousOwner",
          "type": "address"
        },
        {
          "indexed": true,
          "internalType": "address",
          "name": "newOwner",
          "type": "address"
        }
      ],
      "name": "OwnershipTransferred",
      "type": "event"
    },
    {
      "anonymous": false,
      "inputs": [
        {
          "indexed": true,
          "internalType": "address",
          "name": "implementation",
          "type": "address"
        }
      ],
      "name": "Upgraded",
      "type": "event"
    },
    {
      "inputs": [],
      "name": "UPGRADE_INTERFACE_VERSION",
      "outputs": [
        {
          "internalType": "string",
          "name": "",
          "type": "string"
        }
      ],
      "stateMutability": "view",
      "type": "function"
    },
    {
      "inputs": [
        {
          "components": [
            {
              "internalType": "address",
              "name": "settlementContract",
              "type": "address"
            },
            {
              "internalType": "address",
              "name": "swapper",
              "type": "address"
            },
            {
              "internalType": "uint256",
              "name": "nonce",
              "type": "uint256"
            },
            {
              "internalType": "uint32",
              "name": "originChainId",
              "type": "uint32"
            },
            {
              "internalType": "uint32",
              "name": "initiateDeadline",
              "type": "uint32"
            },
            {
              "internalType": "uint32",
              "name": "fillDeadline",
              "type": "uint32"
            },
            {
              "internalType": "bytes",
              "name": "orderData",
              "type": "bytes"
            }
          ],
          "internalType": "struct IERC7683.CrossChainOrder",
          "name": "order",
          "type": "tuple"
        },
        {
          "internalType": "bytes",
          "name": "signature",
          "type": "bytes"
        }
      ],
      "name": "claim",
      "outputs": [],
      "stateMutability": "nonpayable",
      "type": "function"
    },
    {
      "inputs": [],
      "name": "eip712Domain",
      "outputs": [
        {
          "internalType": "bytes1",
          "name": "fields",
          "type": "bytes1"
        },
        {
          "internalType": "string",
          "name": "name",
          "type": "string"
        },
        {
          "internalType": "string",
          "name": "version",
          "type": "string"
        },
        {
          "internalType": "uint256",
          "name": "chainId",
          "type": "uint256"
        },
        {
          "internalType": "address",
          "name": "verifyingContract",
          "type": "address"
        },
        {
          "internalType": "bytes32",
          "name": "salt",
          "type": "bytes32"
        },
        {
          "internalType": "uint256[]",
          "name": "extensions",
          "type": "uint256[]"
        }
      ],
      "stateMutability": "view",
      "type": "function"
    },
    {
      "inputs": [
        {
          "internalType": "address",
          "name": "initialOwner",
          "type": "address"
        }
      ],
      "name": "initialize",
      "outputs": [],
      "stateMutability": "nonpayable",
      "type": "function"
    },
    {
      "inputs": [
        {
          "internalType": "bytes32",
          "name": "",
          "type": "bytes32"
        }
      ],
      "name": "isIntentSettled",
      "outputs": [
        {
          "internalType": "bool",
          "name": "",
          "type": "bool"
        }
      ],
      "stateMutability": "view",
      "type": "function"
    },
    {
      "inputs": [
        {
          "components": [
            {
              "internalType": "address",
              "name": "settlementContract",
              "type": "address"
            },
            {
              "internalType": "address",
              "name": "swapper",
              "type": "address"
            },
            {
              "internalType": "uint256",
              "name": "nonce",
              "type": "uint256"
            },
            {
              "internalType": "uint32",
              "name": "originChainId",
              "type": "uint32"
            },
            {
              "internalType": "uint32",
              "name": "initiateDeadline",
              "type": "uint32"
            },
            {
              "internalType": "uint32",
              "name": "fillDeadline",
              "type": "uint32"
            },
            {
              "internalType": "bytes",
              "name": "orderData",
              "type": "bytes"
            }
          ],
          "internalType": "struct IERC7683.CrossChainOrder",
          "name": "order",
          "type": "tuple"
        },
        {
          "internalType": "bytes",
          "name": "signature",
          "type": "bytes"
        },
        {
          "internalType": "bytes",
          "name": "",
          "type": "bytes"
        }
      ],
      "name": "open",
      "outputs": [],
      "stateMutability": "nonpayable",
      "type": "function"
    },
    {
      "inputs": [],
      "name": "oracle",
      "outputs": [
        {
          "internalType": "address",
          "name": "",
          "type": "address"
        }
      ],
      "stateMutability": "view",
      "type": "function"
    },
    {
      "inputs": [],
      "name": "owner",
      "outputs": [
        {
          "internalType": "address",
          "name": "",
          "type": "address"
        }
      ],
      "stateMutability": "view",
      "type": "function"
    },
    {
      "inputs": [],
      "name": "proxiableUUID",
      "outputs": [
        {
          "internalType": "bytes32",
          "name": "",
          "type": "bytes32"
        }
      ],
      "stateMutability": "view",
      "type": "function"
    },
    {
      "inputs": [
        {
          "components": [
            {
              "internalType": "address",
              "name": "settlementContract",
              "type": "address"
            },
            {
              "internalType": "address",
              "name": "swapper",
              "type": "address"
            },
            {
              "internalType": "uint256",
              "name": "nonce",
              "type": "uint256"
            },
            {
              "internalType": "uint32",
              "name": "originChainId",
              "type": "uint32"
            },
            {
              "internalType": "uint32",
              "name": "initiateDeadline",
              "type": "uint32"
            },
            {
              "internalType": "uint32",
              "name": "fillDeadline",
              "type": "uint32"
            },
            {
              "internalType": "bytes",
              "name": "orderData",
              "type": "bytes"
            }
          ],
          "internalType": "struct IERC7683.CrossChainOrder",
          "name": "order",
          "type": "tuple"
        }
      ],
      "name": "refund",
      "outputs": [],
      "stateMutability": "nonpayable",
      "type": "function"
    },
    {
      "inputs": [],
      "name": "renounceOwnership",
      "outputs": [],
      "stateMutability": "nonpayable",
      "type": "function"
    },
    {
      "inputs": [
        {
          "components": [
            {
              "internalType": "address",
              "name": "settlementContract",
              "type": "address"
            },
            {
              "internalType": "address",
              "name": "swapper",
              "type": "address"
            },
            {
              "internalType": "uint256",
              "name": "nonce",
              "type": "uint256"
            },
            {
              "internalType": "uint32",
              "name": "originChainId",
              "type": "uint32"
            },
            {
              "internalType": "uint32",
              "name": "initiateDeadline",
              "type": "uint32"
            },
            {
              "internalType": "uint32",
              "name": "fillDeadline",
              "type": "uint32"
            },
            {
              "internalType": "bytes",
              "name": "orderData",
              "type": "bytes"
            }
          ],
          "internalType": "struct IERC7683.CrossChainOrder",
          "name": "order",
          "type": "tuple"
        },
        {
          "internalType": "bytes",
          "name": "orderData",
          "type": "bytes"
        }
      ],
      "name": "resolve",
      "outputs": [
        {
          "components": [
            {
              "internalType": "address",
              "name": "settlementContract",
              "type": "address"
            },
            {
              "internalType": "address",
              "name": "swapper",
              "type": "address"
            },
            {
              "internalType": "uint256",
              "name": "nonce",
              "type": "uint256"
            },
            {
              "internalType": "uint32",
              "name": "originChainId",
              "type": "uint32"
            },
            {
              "internalType": "uint32",
              "name": "initiateDeadline",
              "type": "uint32"
            },
            {
              "internalType": "uint32",
              "name": "fillDeadline",
              "type": "uint32"
            },
            {
              "components": [
                {
                  "internalType": "address",
                  "name": "token",
                  "type": "address"
                },
                {
                  "internalType": "uint256",
                  "name": "amount",
                  "type": "uint256"
                }
              ],
              "internalType": "struct IERC7683.Input[]",
              "name": "swapperInputs",
              "type": "tuple[]"
            },
            {
              "components": [
                {
                  "internalType": "address",
                  "name": "token",
                  "type": "address"
                },
                {
                  "internalType": "uint256",
                  "name": "amount",
                  "type": "uint256"
                },
                {
                  "internalType": "address",
                  "name": "recipient",
                  "type": "address"
                },
                {
                  "internalType": "uint32",
                  "name": "chainId",
                  "type": "uint32"
                }
              ],
              "internalType": "struct IERC7683.Output[]",
              "name": "swapperOutputs",
              "type": "tuple[]"
            },
            {
              "components": [
                {
                  "internalType": "address",
                  "name": "token",
                  "type": "address"
                },
                {
                  "internalType": "uint256",
                  "name": "amount",
                  "type": "uint256"
                },
                {
                  "internalType": "address",
                  "name": "recipient",
                  "type": "address"
                },
                {
                  "internalType": "uint32",
                  "name": "chainId",
                  "type": "uint32"
                }
              ],
              "internalType": "struct IERC7683.Output[]",
              "name": "fillerOutputs",
              "type": "tuple[]"
            }
          ],
          "internalType": "struct IERC7683.ResolvedCrossChainOrder",
          "name": "",
          "type": "tuple"
        }
      ],
      "stateMutability": "pure",
      "type": "function"
    },
    {
      "inputs": [
        {
          "internalType": "address",
          "name": "_oracle",
          "type": "address"
        }
      ],
      "name": "setOracle",
      "outputs": [],
      "stateMutability": "nonpayable",
      "type": "function"
    },
    {
      "inputs": [
        {
          "internalType": "address",
          "name": "newOwner",
          "type": "address"
        }
      ],
      "name": "transferOwnership",
      "outputs": [],
      "stateMutability": "nonpayable",
      "type": "function"
    },
    {
      "inputs": [
        {
          "internalType": "address",
          "name": "newImplementation",
          "type": "address"
        },
        {
          "internalType": "bytes",
          "name": "data",
          "type": "bytes"
        }
      ],
      "name": "upgradeToAndCall",
      "outputs": [],
      "stateMutability": "payable",
      "type": "function"
    }
  ],
  "bytecode": "0x60a060405230608052348015610013575f80fd5b5061001c610021565b6100d3565b7ff0c57e16840df040f15088dc2f81fe391c3923bec73e23a9662efc9c229c6a00805468010000000000000000900460ff16156100715760405163f92ee8a960e01b815260040160405180910390fd5b80546001600160401b03908116146100d05780546001600160401b0319166001600160401b0390811782556040519081527fc7f505b2f371ae2175ee4913f4499e1f2633a7b5936321eed1cdaeb6115181d29060200160405180910390a15b50565b6080516122ba620000fa5f395f8181610cf901528181610d220152610e6601526122ba5ff3fe6080604052600436106100e4575f3560e01c806384b0196e11610087578063c4d66de811610057578063c4d66de8146102b7578063dd630595146102d6578063f2fde38b146102f5578063f5115bb014610314575f80fd5b806384b0196e146101eb5780638da5cb5b14610212578063ad3cb1cc1461024e578063bf6d01d31461028b575f80fd5b8063715018a6116100c2578063715018a614610162578063779eb291146101765780637adbf973146101955780637dc0d1d0146101b4575f80fd5b806319755728146100e85780634f1ef2861461012b57806352d1902d14610140575b5f80fd5b3480156100f3575f80fd5b5061011661010236600461198a565b5f6020819052908152604090205460ff1681565b60405190151581526020015b60405180910390f35b61013e6101393660046119c9565b610333565b005b34801561014b575f80fd5b50610154610352565b604051908152602001610122565b34801561016d575f80fd5b5061013e61036d565b348015610181575f80fd5b5061013e610190366004611a9d565b610380565b3480156101a0575f80fd5b5061013e6101af366004611ad7565b6104f1565b3480156101bf575f80fd5b506001546101d3906001600160a01b031681565b6040516001600160a01b039091168152602001610122565b3480156101f6575f80fd5b506101ff61051b565b6040516101229796959493929190611b3f565b34801561021d575f80fd5b507f9016d09d72d40fdae2fd8ceac6b6234c7706214fd39c1cd1e609a0528c199300546001600160a01b03166101d3565b348015610259575f80fd5b5061027e604051806040016040528060058152602001640352e302e360dc1b81525081565b6040516101229190611bd6565b348015610296575f80fd5b506102aa6102a5366004611c2d565b6105c4565b6040516101229190611d42565b3480156102c2575f80fd5b5061013e6102d1366004611ad7565b6107ce565b3480156102e1575f80fd5b5061013e6102f0366004611c2d565b610935565b348015610300575f80fd5b5061013e61030f366004611ad7565b610b44565b34801561031f575f80fd5b5061013e61032e366004611e16565b610b81565b61033b610cee565b61034482610d92565b61034e8282610d9a565b5050565b5f61035b610e5b565b505f8051602061226583398151915290565b610375610ea4565b61037e5f610eff565b565b5f816040516020016103929190611f26565b60408051601f1981840301815291815281516020928301205f8181529283905291205490915060ff16156103e15760405162461bcd60e51b81526004016103d890611fd4565b60405180910390fd5b6103f160c0830160a08401612004565b63ffffffff16421161043c5760405162461bcd60e51b81526020600482015260146024820152731499599d5b99081b9bdd081c9958591e481e595d60621b60448201526064016103d8565b5f818152602081905260408120805460ff191660011790558061046260c085018561201d565b81019061046f9190612060565b90925090506104986104876040860160208701611ad7565b6001600160a01b0384169083610f6f565b6104a86040850160208601611ad7565b6001600160a01b0316837fbb0af7321a16834399146ab3819202a61859e53d69bd9cf889c444dfe69f1bb2836040516104e391815260200190565b60405180910390a350505050565b6104f9610ea4565b600180546001600160a01b0319166001600160a01b0392909216919091179055565b5f60608082808083815f80516020612245833981519152805490915015801561054657506001810154155b61058a5760405162461bcd60e51b81526020600482015260156024820152741152540dcc4c8e88155b9a5b9a5d1a585b1a5e9959605a1b60448201526064016103d8565b610592610fce565b61059a61108e565b604080515f80825260208201909252600f60f81b9c939b5091995046985030975095509350915050565b6106316040518061012001604052805f6001600160a01b031681526020015f6001600160a01b031681526020015f81526020015f63ffffffff1681526020015f63ffffffff1681526020015f63ffffffff1681526020016060815260200160608152602001606081525090565b5f8061063f84860186612060565b6040805160018082528183019092529294509092505f9190816020015b604080518082019091525f808252602082015281526020019060019003908161065c5790505090506040518060400160405280846001600160a01b0316815260200183815250815f815181106106b4576106b461208a565b602090810291909101810191909152604080515f80825292810190915281610709565b604080516080810182525f8082526020808301829052928201819052606082015282525f199092019101816106d75790505b506040805161012081019091529091508061072760208b018b611ad7565b6001600160a01b031681526020018960200160208101906107489190611ad7565b6001600160a01b031681526040808b013560208301520161076f60808b0160608c01612004565b63ffffffff16815260200161078a60a08b0160808c01612004565b63ffffffff1681526020016107a560c08b0160a08c01612004565b63ffffffff168152602001838152602001828152602001828152509450505050505b9392505050565b5f6107d76110cc565b805490915060ff600160401b820416159067ffffffffffffffff165f811580156107fe5750825b90505f8267ffffffffffffffff16600114801561081a5750303b155b905081158015610828575080155b156108465760405163f92ee8a960e01b815260040160405180910390fd5b845467ffffffffffffffff19166001178555831561087057845460ff60401b1916600160401b1785555b610879866110f6565b610881611107565b6108cc6040518060400160405280601081526020016f125b9d195b9d14d95d1d1b195b595b9d60821b815250604051806040016040528060018152602001603160f81b81525061110f565b600180546001600160a01b0319166001600160a01b038816179055831561092d57845460ff60401b19168555604051600181527fc7f505b2f371ae2175ee4913f4499e1f2633a7b5936321eed1cdaeb6115181d29060200160405180910390a15b505050505050565b5f836040516020016109479190611f26565b60408051601f1981840301815291815281516020928301205f8181529283905291205490915060ff161561098d5760405162461bcd60e51b81526004016103d890611fd4565b5f81336040516020016109cb9291909182526511925313115160d21b602083015260601b6bffffffffffffffffffffffff19166026820152603a0190565b6040516020818303038152906040528051906020012090505f610a1a827f19457468657265756d205369676e6564204d6573736167653a0a3332000000005f908152601c91909152603c902090565b600154604080516020601f8901819004810282018101909252878152929350610a6a926001600160a01b0390921691849189908990819084018382808284375f9201919091525061112192505050565b610ab65760405162461bcd60e51b815260206004820152601860248201527f496e76616c6964206f7261636c65207369676e6174757265000000000000000060448201526064016103d8565b5f838152602081905260408120805460ff1916600117905580610adc60c089018961201d565b810190610ae99190612060565b9092509050610b026001600160a01b0383163383610f6f565b604051818152339086907f3199041b18804c34ad0357d0cd64bc644aa7bbc3863883aa77b2cd6f13a1413f906020015b60405180910390a35050505050505050565b610b4c610ea4565b6001600160a01b038116610b7557604051631e4fbdf760e01b81525f60048201526024016103d8565b610b7e81610eff565b50565b5f85604051602001610b939190611f26565b60408051601f1981840301815291815281516020928301205f8181529283905291205490915060ff1615610bd95760405162461bcd60e51b81526004016103d890611fd4565b610be960a0870160808801612004565b63ffffffff16421115610c3e5760405162461bcd60e51b815260206004820152601c60248201527f496e74656e7420696e697420646561646c696e6520657870697265640000000060448201526064016103d8565b610c49868686611191565b5f80610c5860c089018961201d565b810190610c659190612060565b9092509050610c8f610c7d60408a0160208b01611ad7565b6001600160a01b03841690308461132e565b610c9f6040890160208a01611ad7565b6001600160a01b0316837fdb6612eaa850faca333faa176c1aac2d5383b26cf3f6e76370efd393aa2b7d0f8484604051610b329291906001600160a01b03929092168252602082015260400190565b306001600160a01b037f0000000000000000000000000000000000000000000000000000000000000000161480610d7457507f00000000000000000000000000000000000000000000000000000000000000006001600160a01b0316610d685f80516020612265833981519152546001600160a01b031690565b6001600160a01b031614155b1561037e5760405163703e46dd60e11b815260040160405180910390fd5b610b7e610ea4565b816001600160a01b03166352d1902d6040518163ffffffff1660e01b8152600401602060405180830381865afa925050508015610df4575060408051601f3d908101601f19168201909252610df19181019061209e565b60015b610e1c57604051634c9c8ce360e01b81526001600160a01b03831660048201526024016103d8565b5f805160206122658339815191528114610e4c57604051632a87526960e21b8152600481018290526024016103d8565b610e56838361136d565b505050565b306001600160a01b037f0000000000000000000000000000000000000000000000000000000000000000161461037e5760405163703e46dd60e11b815260040160405180910390fd5b33610ed67f9016d09d72d40fdae2fd8ceac6b6234c7706214fd39c1cd1e609a0528c199300546001600160a01b031690565b6001600160a01b03161461037e5760405163118cdaa760e01b81523360048201526024016103d8565b7f9016d09d72d40fdae2fd8ceac6b6234c7706214fd39c1cd1e609a0528c19930080546001600160a01b031981166001600160a01b03848116918217845560405192169182907f8be0079c531659141344cd1fd0a4f28419497f9722a3daafe3b4186f6b6457e0905f90a3505050565b6040516001600160a01b03838116602483015260448201839052610e5691859182169063a9059cbb906064015b604051602081830303815290604052915060e01b6020820180516001600160e01b0383818316178352505050506113c2565b7fa16a46d94261c7517cc8ff89f61c0ce93598e3c849801011dee649a6a557d10280546060915f805160206122458339815191529161100c906120b5565b80601f0160208091040260200160405190810160405280929190818152602001828054611038906120b5565b80156110835780601f1061105a57610100808354040283529160200191611083565b820191905f5260205f20905b81548152906001019060200180831161106657829003601f168201915b505050505091505090565b7fa16a46d94261c7517cc8ff89f61c0ce93598e3c849801011dee649a6a557d10380546060915f805160206122458339815191529161100c906120b5565b5f807ff0c57e16840df040f15088dc2f81fe391c3923bec73e23a9662efc9c229c6a005b92915050565b6110fe61142e565b610b7e81611453565b61037e61142e565b61111761142e565b61034e828261145b565b5f836001600160a01b03163b5f0361117f575f8061113f85856114ba565b5090925090505f816003811115611158576111586120e7565b1480156111765750856001600160a01b0316826001600160a01b0316145b925050506107c7565b61118a848484611503565b90506107c7565b7f72a4f7391816bfa2202d7723661da2b41218ee184bb2bf2e2ecd4fcc657a773e5f816111c16020870187611ad7565b6111d16040880160208901611ad7565b60408801356111e660808a0160608b01612004565b6111f660a08b0160808c01612004565b61120660c08c0160a08d01612004565b61121360c08d018d61201d565b6040516112219291906120fb565b6040805191829003822060208301999099526001600160a01b0397881690820152959094166060860152608085019290925263ffffffff90811660a085015290811660c08401521660e0820152610100810191909152610120016040516020818303038152906040528051906020012090505f61129d826115da565b90506112ee6112b26040880160208901611ad7565b8287878080601f0160208091040260200160405190810160405280939291908181526020018383808284375f9201919091525061112192505050565b61092d5760405162461bcd60e51b8152602060048201526011602482015270496e76616c6964207369676e617475726560781b60448201526064016103d8565b6040516001600160a01b0384811660248301528381166044830152606482018390526113679186918216906323b872dd90608401610f9c565b50505050565b61137682611606565b6040516001600160a01b038316907fbc7cd75a20ee27fd9adebab32041f755214dbc6bffa90cc0225b39da2e5c2d3b905f90a28051156113ba57610e568282611669565b61034e6116db565b5f8060205f8451602086015f885af1806113e1576040513d5f823e3d81fd5b50505f513d915081156113f8578060011415611405565b6001600160a01b0384163b155b1561136757604051635274afe760e01b81526001600160a01b03851660048201526024016103d8565b6114366116fa565b61037e57604051631afcd79f60e31b815260040160405180910390fd5b610b4c61142e565b61146361142e565b5f805160206122458339815191527fa16a46d94261c7517cc8ff89f61c0ce93598e3c849801011dee649a6a557d10261149c8482612155565b50600381016114ab8382612155565b505f8082556001909101555050565b5f805f83516041036114f1576020840151604085015160608601515f1a6114e388828585611713565b9550955095505050506114fc565b505081515f91506002905b9250925092565b5f805f856001600160a01b03168585604051602401611523929190612211565b60408051601f198184030181529181526020820180516001600160e01b0316630b135d3f60e11b179052516115589190612229565b5f60405180830381855afa9150503d805f8114611590576040519150601f19603f3d011682016040523d82523d5f602084013e611595565b606091505b50915091508180156115a957506020815110155b80156115d057508051630b135d3f60e11b906115ce908301602090810190840161209e565b145b9695505050505050565b5f6110f06115e66117db565b8360405161190160f01b8152600281019290925260228201526042902090565b806001600160a01b03163b5f0361163b57604051634c9c8ce360e01b81526001600160a01b03821660048201526024016103d8565b5f8051602061226583398151915280546001600160a01b0319166001600160a01b0392909216919091179055565b60605f80846001600160a01b0316846040516116859190612229565b5f60405180830381855af49150503d805f81146116bd576040519150601f19603f3d011682016040523d82523d5f602084013e6116c2565b606091505b50915091506116d28583836117e9565b95945050505050565b341561037e5760405163b398979f60e01b815260040160405180910390fd5b5f6117036110cc565b54600160401b900460ff16919050565b5f80807f7fffffffffffffffffffffffffffffff5d576e7357a4501ddfe92f46681b20a084111561174c57505f915060039050826117d1565b604080515f808252602082018084528a905260ff891692820192909252606081018790526080810186905260019060a0016020604051602081039080840390855afa15801561179d573d5f803e3d5ffd5b5050604051601f1901519150506001600160a01b0381166117c857505f9250600191508290506117d1565b92505f91508190505b9450945094915050565b5f6117e4611845565b905090565b6060826117fe576117f9826118b8565b6107c7565b815115801561181557506001600160a01b0384163b155b1561183e57604051639996b31560e01b81526001600160a01b03851660048201526024016103d8565b50806107c7565b5f7f8b73c3c69bb8fe3d512ecc4cf759cc79239f7b179b0ffacaa9a75d522b39400f61186f6118e0565b611877611948565b60408051602081019490945283019190915260608201524660808201523060a082015260c00160405160208183030381529060405280519060200120905090565b8051156118c757805160208201fd5b60405163d6bda27560e01b815260040160405180910390fd5b5f5f80516020612245833981519152816118f8610fce565b80519091501561191057805160209091012092915050565b8154801561191f579392505050565b7fc5d2460186f7233c927e7db2dcc703c0e500b653ca82273b7bfad8045d85a470935050505090565b5f5f805160206122458339815191528161196061108e565b80519091501561197857805160209091012092915050565b6001820154801561191f579392505050565b5f6020828403121561199a575f80fd5b5035919050565b6001600160a01b0381168114610b7e575f80fd5b634e487b7160e01b5f52604160045260245ffd5b5f80604083850312156119da575f80fd5b82356119e5816119a1565b9150602083013567ffffffffffffffff80821115611a01575f80fd5b818501915085601f830112611a14575f80fd5b813581811115611a2657611a266119b5565b604051601f8201601f19908116603f01168101908382118183101715611a4e57611a4e6119b5565b81604052828152886020848701011115611a66575f80fd5b826020860160208301375f6020848301015280955050505050509250929050565b5f60e08284031215611a97575f80fd5b50919050565b5f60208284031215611aad575f80fd5b813567ffffffffffffffff811115611ac3575f80fd5b611acf84828501611a87565b949350505050565b5f60208284031215611ae7575f80fd5b81356107c7816119a1565b5f5b83811015611b0c578181015183820152602001611af4565b50505f910152565b5f8151808452611b2b816020860160208601611af2565b601f01601f19169290920160200192915050565b60ff60f81b881681525f602060e06020840152611b5f60e084018a611b14565b8381036040850152611b71818a611b14565b606085018990526001600160a01b038816608086015260a0850187905284810360c0860152855180825260208088019350909101905f5b81811015611bc457835183529284019291840191600101611ba8565b50909c9b505050505050505050505050565b602081525f6107c76020830184611b14565b5f8083601f840112611bf8575f80fd5b50813567ffffffffffffffff811115611c0f575f80fd5b602083019150836020828501011115611c26575f80fd5b9250929050565b5f805f60408486031215611c3f575f80fd5b833567ffffffffffffffff80821115611c56575f80fd5b611c6287838801611a87565b94506020860135915080821115611c77575f80fd5b50611c8486828701611be8565b9497909650939450505050565b5f815180845260208085019450602084015f5b83811015611cd457815180516001600160a01b031688528301518388015260409096019590820190600101611ca4565b509495945050505050565b5f815180845260208085019450602084015f5b83811015611cd457815180516001600160a01b03908116895284820151858a01526040808301519091169089015260609081015163ffffffff169088015260809096019590820190600101611cf2565b60208152611d5c6020820183516001600160a01b03169052565b5f6020830151611d7760408401826001600160a01b03169052565b50604083015160608301526060830151611d99608084018263ffffffff169052565b50608083015163ffffffff811660a08401525060a083015163ffffffff811660c08401525060c08301516101208060e0850152611dda610140850183611c91565b915060e0850151601f19610100818786030181880152611dfa8584611cdf565b9088015187820390920184880152935090506115d08382611cdf565b5f805f805f60608688031215611e2a575f80fd5b853567ffffffffffffffff80821115611e41575f80fd5b611e4d89838a01611a87565b96506020880135915080821115611e62575f80fd5b611e6e89838a01611be8565b90965094506040880135915080821115611e86575f80fd5b50611e9388828901611be8565b969995985093965092949392505050565b803563ffffffff81168114611eb7575f80fd5b919050565b5f808335601e19843603018112611ed1575f80fd5b830160208101925035905067ffffffffffffffff811115611ef0575f80fd5b803603821315611c26575f80fd5b81835281816020850137505f828201602090810191909152601f909101601f19169091010190565b602081525f8235611f36816119a1565b6001600160a01b0390811660208481019190915284013590611f57826119a1565b8082166040850152505060408301356060830152611f7760608401611ea4565b63ffffffff808216608085015280611f9160808701611ea4565b1660a08501525050611fa560a08401611ea4565b63ffffffff811660c084015250611fbf60c0840184611ebc565b60e0808501526116d261010085018284611efe565b602080825260169082015275125b9d195b9d08185b1c9958591e481cd95d1d1b195960521b604082015260600190565b5f60208284031215612014575f80fd5b6107c782611ea4565b5f808335601e19843603018112612032575f80fd5b83018035915067ffffffffffffffff82111561204c575f80fd5b602001915036819003821315611c26575f80fd5b5f8060408385031215612071575f80fd5b823561207c816119a1565b946020939093013593505050565b634e487b7160e01b5f52603260045260245ffd5b5f602082840312156120ae575f80fd5b5051919050565b600181811c908216806120c957607f821691505b602082108103611a9757634e487b7160e01b5f52602260045260245ffd5b634e487b7160e01b5f52602160045260245ffd5b818382375f9101908152919050565b601f821115610e5657805f5260205f20601f840160051c8101602085101561212f5750805b601f840160051c820191505b8181101561214e575f815560010161213b565b5050505050565b815167ffffffffffffffff81111561216f5761216f6119b5565b6121838161217d84546120b5565b8461210a565b602080601f8311600181146121b6575f841561219f5750858301515b5f19600386901b1c1916600185901b17855561092d565b5f85815260208120601f198616915b828110156121e4578886015182559484019460019091019084016121c5565b508582101561220157878501515f19600388901b60f8161c191681555b5050505050600190811b01905550565b828152604060208201525f611acf6040830184611b14565b5f825161223a818460208701611af2565b919091019291505056fea16a46d94261c7517cc8ff89f61c0ce93598e3c849801011dee649a6a557d100360894a13ba1a3210667c828492db98dca3e2076cc3735a920a3ca505d382bbca2646970667358221220c66b88f07b840fae25b6ee25a857e207ea90847fc436958f4fc189dc6d05439364736f6c63430008180033",
  "linkReferences": {},
  "deployedLinkReferences": {}
}